:020000040000FA
:04000000C6EF35F022
:106A8800016E01C083FF120039306D6C00000000F8
:106A98003135306D6C000000E803960014000F00DB
:106AA80005000FC001F010C002F0ABEC35F001504A
:106AB8000F24056E02501020066E11C007F012C098
:106AC80008F019EC36F01200076E8482075044EC87
:106AD80035F08494000E026E030E016E47EC36F01A
:106AE8008492000E026E030E016E47EC36F084822B
:106AF8001200076E8482075044EC35F08484000E3F
:106B0800026E030E016E47EC36F08492000E026EA0
:106B1800030E016E47EC36F084821200455850523D
:106B28004553534F0000414D45524943414E4F0094
:106B3800434150554343494E4F004C41545445003E
:106B4800000000000000000000000000000001C07C
:106B580003F002C004F0B3EF35F0014A022A01C085
:106B6800D9FF02C0DAFFDF50D8A4BDEF35F0BFEF80
:106B780035F0B1EF35F00350015C016E0450025856
:106B8800026E1200240EF66E6B0EF76E000EF86E93
:106B980001EE00F010EE32F00900F5CFEEFFE550FF
:106BA800E150FAE1900EF66E6A0EF76E000EF86E7E
:106BB80000EE36F010EE1AF00900F5CFEEFFE550C2
:106BC800E150FAE1000EF86E0001BCEF3BF0849250
:106BD8008494000E026E140E016E47EC36F0848227
:106BE800380E68EC35F0000E026E050E016E47ECAB
:106BF80036F0380E68EC35F0000E026E010E016EAC
:106C080047EC36F0380E68EC35F0080E68EC35F0D5
:106C18000F0E68EC35F0010E68EC35F0380E68ECB4
:106C280035F0800E68EC35F0120007C00BF008C094
:106C38000CF005C00DF006C00EF00B50096E0C509C
:106C48000A6E0B4A0C2A09C0F6FF0AC0F7FFF86A59
:106C58000DC0D9FF0EC0DAFF0D4A0E2A050EF764E3
:106C680003D00800F55005D0F6CFE9FFF7CFEAFFCB
:106C7800EF50DF6EDF50D8A444EF36F046EF36F021
:106C880021EF36F01200000E046E000E036E6DEF59
:106C980036F0000E056E280E056455EF36F057EFF6
:106CA80036F059EF36F06BEF36F0000E066E020E36
:106CB800066461EF36F063EF36F065EF36F068EFA3
:106CC80036F0062A5BEF36F0052A4FEF36F0034A16
:106CD800042A0150035C02500458D8A076EF36F01D
:106CE80078EF36F04DEF36F01200000E0C6E96EF8E
:106CF80036F00C5008240A6E000E09200B6E0AC0EC
:106D0800F6FF0BC0F7FFF86A050EF76403D008001A
:106D1800F55005D0F6CFE9FFF7CFEAFFEF507DEC4D
:106D280035F00C2A0C5008240A6E000E09200B6E50
:106D38000AC0F6FF0BC0F7FFF86A050EF76403D028
:106D48000800F55005D0F6CFE9FFF7CFEAFFEF507E
:106D58000009D8A4B2EF36F0B4EF36F07DEF36F084
:106D68001200000E0E6E0ABEBEEF36F0BCEF36F013
:106D7800C4EF36F0096C0A1ED8B00A2A010E0E6E4E
:106D88000CBECBEF36F0C9EF36F0CFEF36F00B6C18
:106D98000C1ED8B00C2A0B500C10D8B4D6EF36F015
:106DA800D8EF36F0FCEF36F0010E0D6EE0EF36F05E
:106DB800D8900B360C360D2A0CAEE5EF36F0E7EF1F
:106DC80036F0DCEF36F00B50095C0C500A58D8A0AE
:106DD800F0EF36F0F2EF36F0F6EF36F00B50095ED2
:106DE8000C500A5AD8900C320B320D2EE7EF36F0C1
:106DF8000E50D8B402EF37F004EF37F008EF37F051
:106E0800096C0A1ED8B00A2A09C009F00AC00AF09B
:106E18001200000E066E04BE16EF37F014EF37F0BE
:106E28001CEF37F0036C041ED8B0042A010E066E5E
:106E380002BE23EF37F021EF37F029EF37F0016C6E
:106E4800021ED8B0022A010E061A000E086E000EA5
:106E5800076E03500410D8B434EF37F036EF37F02C
:106E68005EEF37F0010E056E3EEF37F0D89003362F
:106E78000436052A04AE43EF37F045EF37F03AEF12
:106E880037F0D890073608360350015C0450025892
:106E9800D8A051EF37F053EF37F058EF37F00350E1
:106EA800015E0450025A0780D89004320332052E3E
:106EB80045EF37F00650D8B464EF37F066EF37F097
:106EC8006AEF37F0076C081ED8B0082A07C001F02F
:106ED80008C002F012000E6E330E0E18D8B477EF09
:106EE80037F079EF37F08EEF37F0010E68EC35F0B8
:106EF800800E68EC35F0D40E086E7F0E096E79ECC2
:106F080036F0C00E68EC35F0900E086E7F0E096EF4
:106F180079EC36F00F0E956E000E086E000E076EB7
:106F2800B3EC39F0300F0F6E000E956E310E0E185F
:106F3800D8A4A1EF37F0A3EF37F0C9EF37F0310E3F
:106F48000F18D8B4AAEF37F0ACEF37F0DBEF37F013
:106F5800320E0F18D8B4B3EF37F0B5EF37F0DBEFD8
:106F680037F0330E0F18D8B4BCEF37F0BEEF37F058
:106F7800DBEF37F0340E0F18D8A4C5EF37F0C7EFA2
:106F880037F0C9EF37F0DBEF37F0310E0F18D8B410
:106F9800D0EF37F0D2EF37F0DBEF37F0320E0F18C3
:106FA800D8A4D9EF37F0DBEF37F08EEF37F00F507A
:106FB8001200010E68EC35F0800E68EC35F00DC05B
:106FC80008F00EC009F079EC36F0C00E68EC35F028
:106FD8000FC008F010C009F079EC36F0030E026E0D
:106FE800E80E016E47EC36F0000E126E000E116EC0
:106FF800000E026E960E016E47EC36F0180E68EC25
:1070080035F0114A122A12BE13EF38F0125009E176
:107018000E0E115CD8A013EF38F015EF38F0FCEF26
:1070280037F0000E126E000E116E000E026E960EF4
:10703800016E47EC36F01C0E68EC35F0114A122A46
:1070480012BE30EF38F0125009E1160E115CD8A0CC
:1070580030EF38F032EF38F019EF38F0000E126EDA
:10706800000E116E000E026E960E016E47EC36F0A1
:10707800180E68EC35F0114A122A12BE4DEF38F09E
:10708800125009E10F0E115CD8A04DEF38F04FEF08
:1070980038F036EF38F0030E026EE80E016E47EC5A
:1070A80036F012002A342B34316E3150D8A45FEFF9
:1070B80038F061EF38F06BEF38F0000E286E000EF4
:1070C800296E000E2A6E000E2B6ED8EF38F028C0FD
:1070D8002CF029C02DF02AC02EF02BC02FF0200E46
:1070E8007BEF38F0D8902F322E322D322C32E82E0A
:1070F80076EF38F02C50306E2A8EFF0E2816FF0ED1
:107108002916FF0E2A16000E2B16960E315E31BE7A
:1071180092EF38F090EF38F0A8EF38F03150800A4D
:10712800970FD8B09AEF38F09CEF38F09EEF38F010
:1071380061EF38F0D8902B322A3229322832313E8A
:107148009EEF38F0C0EF38F01F0E3164AEEF38F024
:10715800B0EF38F0B8EF38F061EF38F0D890283653
:1071680029362A362B3631063150D8A4BEEF38F0EE
:10717800C0EF38F0B2EF38F03050D8B4C6EF38F07E
:10718800C8EF38F0D0EF38F02B1E2A1E291E286CC5
:10719800000E29222A222B2228C028F029C029F0F3
:1071A8002AC02AF02BC02BF01200096E0950D8B45F
:1071B800E0EF38F0E2EF38F004EF39F004BEE9EF21
:1071C80038F0E7EF38F004EF39F001C005F002C0FD
:1071D80006F003C007F004C008F0051E061E071ECF
:1071E800081E052A000E06220722082205C00BF0F9
:1071F80006C00CF007C00DF008C00EF00CEF39F017
:1072080001C00BF002C00CF003C00DF004C00EF07A
:107218000150021003100410D8A415EF39F017EF2D
:1072280039F021EF39F0000E016E000E026E000EEB
:10723800036E000E046EB2EF39F0960E0A6E2BEF55
:1072480039F00A2AD8900E320D320C320B32000E69
:107258000B14056E000E0C14066E000E0D14076E4E
:10726800FE0E0E14086E0550061007100810D8A45C
:1072780040EF39F042EF39F025EF39F050EF39F0AF
:107288000A2A010E0B26000E0C220D220E22D8907F
:107298000E320D320C320B32000E0B14056E000E3E
:1072A8000C14066E000E0D14076EFF0E0E14086EF9
:1072B8000550061007100810D8A465EF39F067EFDD
:1072C80039F044EF39F06FEF39F00A06D8900B36F1
:1072D8000C360D360E360DBE74EF39F076EF39F0F8
:1072E8007EEF39F0020E0A607CEF39F07EEF39F05C
:1072F80069EF39F00AB083EF39F085EF39F086EF9E
:1073080039F00D9ED8900A320AC005F0066A076A5D
:10731800086A05C008F0076A066A056A05500B1274
:1073280006500C1207500D1208500E120950D8B40E
:10733800A0EF39F0A2EF39F0AAEF39F004BEA9EFB7
:1073480039F0A7EF39F0AAEF39F00E8E0BC001F033
:107358000CC002F00DC003F00EC004F01200000EC5
:107368000A6E000E096E000E0C6E81CF0BF064EFF2
:107378003AF0000E0D6EAD0E0D24F66EF76A7E0E15
:10738800F7220800F550FF0A811283B6CEEF39F0D4
:10739800D0EF39F0E8EF39F0000E026E0F0E016EF3
:1073A80047EC36F083B6DBEF39F0DDEF39F0E8EF84
:1073B80039F083A6E2EF39F0E4EF39F0DDEF39F088
:1073C8000D280C6E5AEF3AF083B4EDEF39F0EFEF79
:1073D80039F008EF3AF0000E026E0F0E016E47EC1E
:1073E80036F083B4FAEF39F0FCEF39F008EF3AF0F1
:1073F80083A401EF3AF003EF3AF0FCEF39F00D50B7
:10740800040F0C6E5AEF3AF083B20DEF3AF00FEF1B
:107418003AF028EF3AF0000E026E0F0E016E47ECBC
:1074280036F083B21AEF3AF01CEF3AF028EF3AF050
:1074380083A221EF3AF023EF3AF01CEF3AF00D5017
:10744800070F0C6E5AEF3AF083B02DEF3AF02FEF9A
:107458003AF048EF3AF0000E026E0F0E016E47EC5C
:1074680036F083B03AEF3AF03CEF3AF048EF3AF0B2
:1074780083A041EF3AF043EF3AF03CEF3AF00D5079
:107488000A0F0C6E5AEF3AF0AD0E0D24F66EF76A3D
:107498007E0EF7220800F55081160D2A020E0D64A3
:1074A80058EF3AF05AEF3AF0BFEF39F0000E026E9B
:1074B800050E016E47EC36F0050E0926000E0A226D
:1074C8000750095C08500A58D8A06DEF3AF06FEFE2
:1074D8003AF078EF3AF007500810D8A476EF3AF06F
:1074E80078EF3AF080EF3AF00C50D8B47EEF3AF0EB
:1074F80080EF3AF0BDEF39F00C50D8A486EF3AF09F
:1075080088EF3AF089EF3AF00C680B0E0C18D8A403
:1075180090EF3AF092EF3AF094EF3AF0000E0C6EDA
:107528000BC081FF0C501200F19E0E0EC16E000EB2
:10753800956E000E926E000E936E000E816E9B0E7D
:10754800F66E7E0EF76E20EE19F0090E0900F5CFE3
:10755800DEFFE806FBE2A50EF66E7E0EF76E20EE65
:1075680011F0070E0900F5CFDEFFE806FBE2000E7A
:10757800256E030E276EE80E266E110E2524D96E91
:10758800DA6A000EDA22DF50816E252A080E2518E5
:10759800D8A4D1EF3AF0D3EF3AF0D5EF3AF0000E95
:1075A800256E000E246E000E236E0FC009F010C069
:1075B8000AF0000E0C6E0A0E0B6EB5EC36F0190EC2
:1075C8000924D96E000E0A20DA6EDF50836E808A95
:1075D800809880968094000E296E000E286EF7EF32
:1075E8003AF0284A292A2650285C27502958D8A03A
:1075F80000EF3BF002EF3BF0F5EF3AF0000E046EBF
:107608000A0E036E0FC001F010C002F00DEC37F047
:1076180001C009F002C00AF0000E0C6E0A0E0B6ED3
:10762800B5EC36F0190E0924D96E000E0A20DA6E70
:10763800DF50836E809A808880968094000E296E31
:10764800000E286E2AEF3BF0284A292A2650285C8B
:1076580027502958D8A033EF3BF035EF3BF028EFFF
:107668003BF0000E046E640E036E0FC001F010C0F4
:1076780002F00DEC37F001C009F002C00AF0000E6C
:107688000C6E0A0E0B6EB5EC36F0190E0924D96E85
:10769800000E0A20DA6EDF50836E809A809880860A
:1076A8008094000E296E000E286E5DEF3BF0284A8C
:1076B800292A2650285C27502958D8A066EF3BF085
:1076C80068EF3BF05BEF3BF0030E046EE80E036ED1
:1076D8000FC001F010C002F00DEC37F001C009F046
:1076E80002C00AF0000E0C6E0A0E0B6EB5EC36F0F6
:1076F800190E0924D96E000E0A20DA6EDF50836E47
:10770800809A809880968084000E296E000E286EDC
:1077180090EF3BF0284A292A2650285C2750295800
:10772800D8A099EF3BF09BEF3BF08EEF3BF0234A5C
:10773800242A245009E1320E235CD8A0A6EF3BF09E
:10774800A8EF3BF0D9EF3AF00F06D8A010060F28A3
:1077580006E11028D8A4B3EF3BF0B5EF3BF0C1EF3A
:107768003AF0809A809880968094000E816E12007C
:1077780021EE00F010EE80F0310EDBCFE3FFE806DB
:10778800FCE220EE36F010EEB2F00F0EDBCFE3FF96
:10779800E806FCE2060EC16E000E956E000E966EAF
:1077A800010E936EF80E936EEBEC35F0060EC16E7B
:1077B800000E956E000E966E010E936EF80E936E87
:1077C800010E68EC35F0800E68EC35F0E20E086EBC
:1077D8007F0E096E79EC36F0C00E68EC35F0B20E0B
:1077E800086E7F0E096E79EC36F0070E026ED00E29
:1077F800016E47EC36F00F0E0D6E7F0E0E6EF00E1A
:107808000F6E7E0E106EDDEC37F0310E6FEC37F038
:107818000001F56F4CEF3CF0C20E056E000E066ECF
:107828006A0E076E7F0E086E19EC36F01E0E000108
:10783800F76F69EF3CF0C20E056E000E066E2B0E58
:10784800076E7F0E086E19EC36F0320E0001F76FE6
:1078580069EF3CF0C20E056E000E066E400E076E14
:107868007F0E086E19EC36F03C0E0001F76F69EFD9
:107878003CF0C20E056E000E066EC30E076E7F0E3C
:10788800086E19EC36F0280E0001F76F69EF3CF02E
:10789800F551326E336A3350000AD8B456EF3CF0D3
:1078A80069EF3CF03250310AD8B410EF3CF0030ACB
:1078B800D8B41FEF3CF0010AD8B42EEF3CF0070A09
:1078C800D8B43DEF3CF069EF3CF0C20E0D6E000EEF
:1078D8000E6ED10E0F6E7E0E106EDDEC37F0320E8E
:1078E8006FEC37F00001F66FC20E056E000E066EE3
:1078F800160E326EFE0E336EF5510A0DF3CF34F0CC
:10790800F4CF35F03250342633503522800E3424EB
:10791800076E000E3520086E19EC36F0C20E0F6E99
:10792800000E106EEE0E116E7E0E126E55EC35F0D6
:10793800C20E0F6E000E106E780E326EFE0E336E93
:107948000001F651346E356AD89034363536D89001
:1079580034363536D89034363536325034263350AE
:107968003522B20E3424116E000E3520126E55ECFD
:1079780035F0010E68EC35F0800E68EC35F0C20E7B
:10798800086E000E096E79EC36F0C00E68EC35F022
:10799800A10E086E7F0E096E79EC36F0330E6FEC8F
:1079A80037F00001F46F320EF419D8B4DEEF3CF072
:1079B800E0EF3CF0FFEF3BF0320EF619D8A4E7EF0A
:1079C8003CF0E9EF3CF010EF3DF09A0E136E990E83
:1079D800146E990E156E3F0E166EF751016E026AFF
:1079E800036A046A000ED9EC38F001C00FF002C037
:1079F80010F003C011F004C012F038EC3DF00FC0D5
:107A080028F010C029F011C02AF012C02BF056EC53
:107A180038F028500001F76F010E68EC35F0800E41
:107A280068EC35F0F00E086E7F0E096E79EC36F0D2
:107A3800C00E68EC35F07E0E086E7F0E096E79EC8C
:107A480036F0F7C00FF0106A98EC3AF0550E0D6E4C
:107A58007F0E0E6EB10E0F6E7E0E106EDDEC37F0DF
:107A6800DAEF3BF000EF00F01250800B1B6E125063
:107A78001224216E11AE43EF3DF045EF3DF046EF85
:107A88003DF021802150D8B44CEF3DF04EEF3DF051
:107A980061EF3DF02128D8A454EF3DF056EF3DF0BA
:107AA8005EEF3DF0000E0F6E000E106E000E116EB0
:107AB800000E126E118E69EF3DF0000E0F6E000E73
:107AC800106E000E116E000E126E1650800B1B1AEF
:107AD80016501624206E15AE74EF3DF076EF3DF08B
:107AE80077EF3DF020802050D8B47DEF3DF07FEF58
:107AF8003DF092EF3DF02028D8A485EF3DF087EFC8
:107B08003DF08FEF3DF0000E136E000E146E000E68
:107B1800156E000E166E158E9AEF3DF0000E136E60
:107B2800000E146E000E156E000E166E2050D8B49E
:107B3800A0EF3DF0A2EF3DF0AAEF3DF02150D8A410
:107B4800A8EF3DF0AAEF3DF0B4EF3DF0000E0F6E48
:107B5800000E106E000E116E000E126E4CEF3FF00C
:107B680015500F02F3CF26F0F4CF27F026501C6EE5
:107B78001D6A1E6A1F6A2750226E236A246A256AB4
:107B880014501002F3CF26F0F4CF27F026501C260D
:107B9800000E1D221E221F2227502226000E2322FD
:107BA8002422252213501102F3CF26F0F4CF27F018
:107BB80026501C26000E1D221E221F222750222678
:107BC800000E2322242225221EC01FF01DC01EF0F5
:107BD8001CC01DF01C6A13501002F3CF26F0F4CF1E
:107BE80027F026501C2627501D22000E1E22000EAC
:107BF8001F2214500F02F3CF26F0F4CF27F026509F
:107C08001C2627501D22000E1E22000E1F221EC0F9
:107C18001FF01DC01EF01CC01DF01C6A13500F027F
:107C2800F3CF26F0F4CF27F026501C2627501D222C
:107C3800000E1E22000E1F2215501002F3CF26F050
:107C4800F4CF27F02650222627502322000E242284
:107C5800000E252214501102F3CF26F0F4CF27F09E
:107C68002650222627502322000E2422000E2522E9
:107C780015501102F3CF26F0F4CF27F02650176ED7
:107C88002750186E196A1A6A19C01AF018C019F024
:107C980017C018F0176A17502226185023221950B7
:107CA80024221A5025221CC017F01DC018F01EC02F
:107CB80019F01FC01AF0190E67EF3EF0D8901A326B
:107CC800193218321732E82E62EF3EF0175022268A
:107CD80018502322195024221A5025221EC01FF0A2
:107CE8001DC01EF01CC01DF01C6A205021C017F0DA
:107CF800186A1726000E1822820E1724266EFF0E09
:107D08001820276E9DEF3EF0D89022362336243671
:107D180025361FAE92EF3EF094EF3EF095EF3EF021
:107D28002280D8901C361D361E361F362606D8A04F
:107D3800270624AEA2EF3EF0A4EF3EF088EF3EF017
:107D4800000E206E1FAEABEF3EF0ADEF3EF0D1EF70
:107D58003EF0FF0E1C14176EFF0E1D14186EFF0E5A
:107D68001E14196E7F0E1F141A6E17501810191052
:107D78001A10D8B4C2EF3EF0C4EF3EF0C8EF3EF0A0
:107D8800010E206ED1EF3EF022A0CDEF3EF0CFEFF6
:107D98003EF0D1EF3EF0C4EF3EF02050D8B4D7EF1C
:107DA8003EF0D9EF3EF0FDEF3EF0010E2226000E28
:107DB80023222422252225A0E4EF3EF0E6EF3EF020
:107DC800FDEF3EF022C017F023C018F024C019F0D0
:107DD80025C01AF01A341A3219321832173217C05D
:107DE80022F018C023F019C024F01AC025F0264A42
:107DF800272A27BE08EF3FF0275008E12628D8A0F9
:107E080008EF3FF00AEF3FF014EF3FF0000E226E4C
:107E1800000E236E800E246E7F0E256E42EF3FF01B
:107E280027BE21EF3FF0275006E12604D8B01FEF08
:107E38003FF021EF3FF02DEF3FF0000E226E000ED5
:107E4800236E000E246E000E256E000E1B6E42EF90
:107E58003FF026C021F0FF0E2216FF0E23167F0EDC
:107E68002416000E251621A03CEF3FF03EEF3FF010
:107E78003FEF3FF0248ED8902130256E1B502512FD
:107E880022C00FF023C010F024C011F025C012F05A
:107E98001200003F065B4F666D7D077F6F0102048D
:107EA8000810204080010204004D61697320646558
:107EB8006C6963696F736F20696D706F737369762E
:107EC800656C202020202020002831293930206DA1
:107ED8006C20283229313530206D6C20202020205C
:107EE800202020202020200028332920636170755D
:107EF8006363696E6F20283429206C61747465206F
:107F080020202020202000283129206578707265E3
:107F180073736F202028322920616D65726963614F
:107F28006E6F0054414D414E484F20444F20414D03
:107F380045524943414E4F0054414D414E484F2010
:107F4800444F20434150554343494E4F00534555F4
:107F5800204341464520455354412050524F4E54EA
:107F68004F0054414D414E484F20444F20455850F2
:107F7800524553534F004341464520444553454AD3
:107F880041444F2020202000204F5043414F20449F
:107F98004553454A41444120002831294F4B202868
:107FA800322943414E43454C20004553434F4C48EA
:107FB800412053455520434146450054414D414ECB
:107FC800484F20444F204C415454450020205052E3
:107FD800455353494F4E45204100202020593055E4
:107FE8005243304646332000505245504152414E8C
:077FF800444F204F20000060
:020000040020DA
:08000000FFFFFFFFFFFFFFFF00
:020000040030CA
:0E000000FF021F00FF8381FF0FC00FE00F40C3
:00000001FF
